:0400000007EF00F016
:10000800018200ED0EF0F6EF20F00001BC6B94C009
:10001800BDF095C0BEF096C0BFF097C0C0F0C0BF9D
:100028001AEF00F018EF00F02EEF00F0010EBC6F91
:10003800BDC060F0BEC061F0BFC062F0C0C063F078
:10004800EBEC25F060C0BDF061C0BEF062C0BFF04F
:1000580063C0C0F00001C26B000EC16F3EC0B0F0BB
:100068003FC0B1F0BC51D8B43CEF00F03EEF00F017
:1000780050EF00F0BC51D8A444EF00F046EF00F078
:100088004BEF00F0A26B2B0EA16F4EEF00F0A26BAE
:100098002D0EA16FA1C0BCF0BDC060F0BEC061F064
:1000A800BFC062F0C0C063F09CEC18F000016005AE
:1000B8006111D8A462EF00F064EF00F093EF00F054
:1000C800BC51D8B46AEF00F06CEF00F074EF00F0A8
:1000D800BCC002F1B007D8A0B107C26B010EC16F56
:1000E800020EC125606F010EC221616FF40E626FAE
:1000F8007F0E636FCEEC25F00001FD0EB027FF0EDA
:10010800B12393C06EF0020E6F6F010E706FB0C016
:1001180071F0B1C072F0F2EC1FF02AEF05F0BDC02B
:1001280060F0BEC061F0BFC062F0C0C063F09CEC7C
:1001380018F0000160516111D8A4A5EF00F0A7EFF5
:1001480000F0C5EF00F0BC51D8B4ADEF00F0AFEF50
:1001580000F0B7EF00F0BCC002F1B007D8A0B107BB
:10016800C26B010EC16F020EC125606F010EC22164
:10017800616FF80E626F7F0E636FCEEC25F080EF33
:1001880000F0000EC36F000EC46F800EC56F3F0EE7
:10019800C66FAB6B000EAA6FBDC060F0BEC061F049
:1001A800BFC062F0C0C063F0000E646F000E656FE0
:1001B800000E666F000E676F65EC1EF00001D8B088
:1001C800E8EF00F0EAEF00F0CCEF01F0F6EF00F016
:1001D800ACC0C3F0ADC0C4F0AEC0C5F0AFC0C6F08F
:1001E800AA4BAB2BC3C06EF0C4C06FF0C5C070F093
:1001F800C6C071F0000E726F000E736F200E746F20
:10020800410E756F87EC07F06EC0ACF06FC0ADF0B3
:1002180070C0AEF071C0AFF00001AC51BD5D606F51
:10022800AD51BE59616FAE51BF59626FAF51C059E0
:10023800636F07EC23F0000163BF2EEF01F06351F9
:100248006211611109E1020E605DD8A02EEF01F084
:1002580030EF01F0ECEF00F0ACC087F0ADC088F0F3
:10026800AEC089F0AFC08AF0BDC08BF0BEC08CF0C4
:10027800BFC08DF0C0C08EF019EC18F00001D8A0F6
:1002880048EF01F04AEF01F0ECEF00F0C351BD5D1B
:10029800606FC451BE59616FC551BF59626FC65175
:1002A800C059636F07EC23F0000163BF69EF01F0E9
:1002B80063516211611107E1020E605DD8B067EF0A
:1002C80001F069EF01F0B2EF01F0C3C0BDF0C4C0A6
:1002D800BEF0C5C0BFF0C6C0C0F0CCEF01F0C3C0CF
:1002E80060F0C4C061F0C5C062F0C6C063F0000E23
:1002F800646F000E656F200E666F410E676F9BEC92
:1003080009F060C0C3F061C0C4F062C0C5F063C04A
:10031800C6F00001AA07D8A0AB07C351BD5D606F46
:10032800C451BE59616FC551BF59626FC651C0599A
:10033800636F07EC23F0000163BFB0EF01F0635176
:100348006211611107E1020E605DD8B0AEEF01F0F5
:10035800B0EF01F0B2EF01F069EF01F0BDC087F036
:10036800BEC088F0BFC089F0C0C08AF0C3C08BF09F
:10037800C4C08CF0C5C08DF0C6C08EF019EC18F062
:100388000001D8A0CAEF01F0CCEF01F073EF01F043
:1003980098C0A4F0A4C0A5F041BED5EF01F0D7EFF6
:1003A80001F0DDEF01F040C09DF041C09EF0E0EFAC
:1003B80001F09E6B060E9D6F9DC0A8F09EC0A9F02F
:1003C800A84BA92B660EA519D8A4EDEF01F0EFEF05
:1003D80001F00EEF02F0ABBFF6EF01F0F4EF01F021
:1003E80001EF02F0000EC36F000EC46F800EC56FE0
:1003F8003F0EC66FAB6B000EAA6F670EA419D8B478
:1004080008EF02F00AEF02F00EEF02F0AA51A82757
:10041800AB51A923BB6B000EBA6FBDC0B2F0BEC012
:10042800B3F0BFC0B4F0C0C0B5F0C3C0ACF0C4C036
:10043800ADF0C5C0AEF0C6C0AFF09FEF02F0B2C0DD
:1004480060F0B3C061F0B4C062F0B5C063F0C3C07F
:1004580064F0C4C065F0C5C066F0C6C067F09BEC28
:1004680009F060C079F061C07AF062C07BF063C0C7
:100478007CF01CEC0FF079C0B6F07AC0B7F07BC006
:10048800B8F07CC0B9F0B6C060F0B7C061F0B8C0D1
:1004980062F0B9C063F012EC17F060C0A6F061C05A
:1004A800A7F0B2C087F0B3C088F0B4C089F0B5C077
:1004B8008AF0B6C072F0B7C073F0B8C074F0B9C0B3
:1004C80075F0C3C06EF0C4C06FF0C5C070F0C6C090
:1004D80071F087EC07F06EC08BF06FC08CF070C0C5
:1004E8008DF071C08EF004EC25F087C0B2F088C0A2
:1004F800B3F089C0B4F08AC0B5F0C3C060F0C4C01E
:1005080061F0C5C062F0C6C063F0000E0001646F00
:10051800000E656F200E666F410E676F9BEC09F049
:1005280060C0C3F061C0C4F062C0C5F063C0C6F06B
:100538000001BA4BBB2BA851BA5DBB51800A996F19
:10054800A951800A9959D8A0ACEF02F0AEEF02F099
:1005580023EF02F0C3C06EF0C4C06FF0C5C070F0E6
:10056800C6C071F0000E726F000E736FA00E746F2C
:10057800400E756F87EC07F06EC0B6F06FC0B7F02D
:1005880070C0B8F071C0B9F0B2C087F0B3C088F0DD
:10059800B4C089F0B5C08AF0B6C08BF0B7C08CF093
:1005A800B8C08DF0B9C08EF019EC18F00001D8B0C1
:1005B800E0EF02F0E2EF02F0ECEF02F0000EB66FAF
:1005C800000EB76F000EB86F000EB96F15EF03F08D
:1005D800B2C060F0B3C061F0B4C062F0B5C063F0FF
:1005E800B6C064F0B7C065F0B8C066F0B9C067F0CF
:1005F80065EC1EF00001D8A004EF03F006EF03F04D
:1006080015EF03F0A6B10BEF03F00DEF03F015EFB4
:1006180003F0000EB66F000EB76F000EB86F000E35
:10062800B96FBDC060F0BEC061F0BFC062F0C0C0AD
:1006380063F0B6C064F0B7C065F0B8C066F0B9C082
:1006480067F02BEC05F060C0B2F061C0B3F062C097
:10065800B4F063C0B5F0B2C087F0B3C088F0B4C0DE
:1006680089F0B5C08AF0000E0001726F000E736F3A
:10067800200E746F410E756FACC06EF0ADC06FF098
:10068800AEC070F0AFC071F087EC07F06EC08BF0B1
:100698006FC08CF070C08DF071C08EF019EC18F03E
:1006A8000001D8A05AEF03F05CEF03F084EF03F0E9
:1006B800AA4BAB2BACC06EF0ADC06FF0AEC070F003
:1006C800AFC071F0000E726F000E736F200E746F62
:1006D800410E756F87EC07F06EC0ACF06FC0ADF0DF
:1006E80070C0AEF071C0AFF0660E0001A519D8A4B5
:1006F80080EF03F082EF03F084EF03F0A84BA92BFF
:10070800ACC0C3F0ADC0C4F0AEC0C5F0AFC0C6F059
:10071800AAC09BF0ABC09CF0A36BA06B000E9F6FB0
:10072800BB6B000EBA6F7EEF04F0B2C060F0B3C0CE
:1007380061F0B4C062F0B5C063F0C3C064F0C4C077
:1007480065F0C5C066F0C6C067F09BEC09F060C0F4
:1007580079F061C07AF062C07BF063C07CF01CEC79
:100768000FF079C0B6F07AC0B7F07BC0B8F07CC0A3
:10077800B9F0B6C060F0B7C061F0B8C062F0B9C0F7
:1007880063F012EC17F0000161BFD6EF03F061517E
:1007980007E10A0E605DD8B0D4EF03F0D6EF03F09E
:1007A800E6EF03F0B6C060F0B7C061F0B8C062F021
:1007B800B9C063F012EC17F060C0A6F061C0A7F0F2
:1007C800E9EF03F0A76B090EA66F0001A351D8A4A7
:1007D800F0EF03F0F2EF03F01AEF04F09CBFF9EF2B
:1007E80003F0F7EF03F01AEF04F0020EC125D96EFB
:1007F800010EC221DA6E2E0EDF6EC14BC22BB0077E
:10080800D8A0B107010EA36F1AEF04F0020EC1259C
:10081800D96E010EC221DA6E300EDF6EC14BC22BCB
:10082800B007D8A0B1079F07D8A0A0079F51A01173
:10083800D8A421EF04F023EF04F00AEF04F0020E2D
:10084800C125D96E010EC221DA6EA651300FDF6EB6
:10085800C14BC22BB007D8A0B107B2C087F0B3C054
:1008680088F0B4C089F0B5C08AF0B6C072F0B7C0DD
:1008780073F0B8C074F0B9C075F0C3C06EF0C4C0EE
:100888006FF0C5C070F0C6C071F087EC07F06EC09D
:100898008BF06FC08CF070C08DF071C08EF004ECDE
:1008A80025F087C0B2F088C0B3F089C0B4F08AC020
:1008B800B5F0C3C060F0C4C061F0C5C062F0C6C086
:1008C80063F0000E0001646F000E656F200E666F06
:1008D800410E676F9BEC09F060C0C3F061C0C4F0C3
:1008E80062C0C5F063C0C6F000019B07D8A09C0792
:1008F800BA4BBB2BA851BA5DBB51800A996FA9515D
:10090800800A9959D8B08BEF04F08DEF04F09BEF73
:1009180004F0C2BF99EF04F0C25109E14B0EC15D6A
:10092800D8A099EF04F09BEF04F099EF03F0BB6BAC
:100938004F0EBA6F020EBA25D96E010EBB21DA6EC0
:10094800DF6A020E996F010E9A6FC151995FC25109
:100958009A5BBA519925606FBB519A21616F020E5B
:10096800626F010E636FC1C064F0C2C065F085ECB0
:1009780023F00001C151BA5DC16FC251BB59C26FAA
:10098800BC51D8A4CAEF04F0CDEF04F0010ECEEFAD
:1009980004F0000EBA6FBB6BFFA3D5EF04F0D7EFDE
:1009A80004F005EF05F0E7EF04F0C107D8A0C2078F
:1009B800020EC125D96E010EC221DA6E300EDF6E2D
:1009C800B007D8A0B107B051BA5DBB51800A996F82
:1009D800B151800A9959D8B0F4EF04F0F6EF04F059
:1009E80005EF05F0C151BA5DBB51800A996FC2513C
:1009F800800A9959D8A003EF05F005EF05F0D9EF63
:100A080004F0BC51D8B40BEF05F00DEF05F018EF6A
:100A180005F0C107D8A0C207020EC125D96E010E84
:100A2800C221DA6EBCC0DFFFBA51B05FBB51B15B07
:100A380093C06EF0020EC1256F6F010EC221706F58
:100A4800B0C071F0B1C072F0F2EC1FF012000001FA
:100A58006351800B6C6F635163256E6F62AF37EF24
:100A680005F039EF05F03AEF05F06E816E51D8B414
:100A780040EF05F042EF05F056EF05F06E29D8A4D7
:100A880048EF05F04AEF05F052EF05F0000E606FF1
:100A9800000E616F000E626F000E636F628F636BF2
:100AA8005EEF05F0000E606F000E616F000E626F62
:100AB800000E636F6751800B6D6F6C516D19D8B460
:100AC80068EF05F06AEF05F06BEF05F06C8D675184
:100AD80067256D6F66AF73EF05F075EF05F076EF7C
:100AE80005F06D816D51D8B47CEF05F07EEF05F00F
:100AF80092EF05F06D29D8A484EF05F086EF05F094
:100B08008EEF05F0000E646F000E656F000E666FC5
:100B1800000E676F668F676B9AEF05F0000E646FC3
:100B2800000E656F000E666F000E676F6E516D5D8B
:100B3800D8B0A1EF05F0A3EF05F0CAEF05F06CAD52
:100B4800A8EF05F0AAEF05F0ACEF05F0800E6C1BDE
:100B58006EC06FF06DC06EF06FC06DF060C06FF06A
:100B680064C060F06FC064F061C06FF065C061F090
:100B78006FC065F062C06FF066C062F06FC066F06B
:100B880063C06FF067C063F06FC067F06F6B6E5142
:100B98006DC068F0696B685F000E695B69BFDEEF66
:100BA80005F0695109E11A0E685DD8A0DEEF05F07D
:100BB800E0EF05F017EF06F0605161116211631163
:100BC800D8A4E9EF05F0ECEF05F0010EEDEF05F024
:100BD800000E6F6F000E606F000E616F000E626F87
:100BE800000E636F6DC06EF020EF06F06FA1FFEF8F
:100BF80005F001EF06F007EF06F0D8906F31010914
:100C08006F6F09EF06F0D8906F3360A10EEF06F012
:100C180010EF06F011EF06F06F8F63356333623320
:100C2800613360336E2B6D516E5DD8A01EEF06F0F8
:100C380020EF06F0FAEF05F06CBD25EF06F027EF80
:100C480006F067EF06F06E51D8A42DEF06F02FEFEF
:100C580006F039EF06F0000E606F000E616F000EAF
:100C6800626F000E636F86EF07F06451602765516D
:100C78006123665162236751632363A146EF06F03F
:100C880048EF06F0F4EF06F06FA14DEF06F04FEFD6
:100C980006F055EF06F0D8906F3101096F6F57EFE6
:100CA80006F0D8906F3360A15CEF06F05EEF06F0B7
:100CB8005FEF06F06F8F6335633362336133603300
:100CC8006E2BF4EF06F06451605D65516159665111
:100CD80062596351800A686F6751800A6859D8B0B1
:100CE80078EF06F07AEF06F0A5EF06F06051645D44
:100CF800686F61516559696F625166596A6F6351CE
:100D080067596B6FFF0E6825606FFF0E6921616F71
:100D1800FF0E6A21626FFF0E6B21636F800E6C1BE2
:100D28006F6D6F51D8A49BEF06F09DEF06F0ADEF05
:100D380006F0010E6027000E612362236323ADEFE6
:100D480006F06451605F6551615B6651625B675193
:100D5800635B6051611162116311D8A4B6EF06F0AC
:100D6800B8EF06F0EDEF06F06F51D8A4BEEF06F02D
:100D7800C0EF06F0EDEF06F0000E606F000E616F39
:100D8800000E626F000E636F86EF07F0D890603731
:100D98006137623763376FAFD4EF06F0D6EF06F0EE
:100DA800D7EF06F060816FA1DCEF06F0DEEF06F00A
:100DB800E2EF06F0D8806F37E4EF06F0D8906F378F
:100DC8006E51D8B4EAEF06F0ECEF06F0EDEF06F05E
:100DD8006E0762AFF2EF06F0F4EF06F0CAEF06F026
:100DE8006D6B6FAFFAEF06F0FCEF06F014EF07F04B
:100DF8006FC068F07F0E6817D8B405EF07F007EFEB
:100E080007F00BEF07F0010E6D6F14EF07F060A10C
:100E180010EF07F012EF07F014EF07F007EF07F0F5
:100E28006D51D8B41AEF07F01CEF07F047EF07F041
:100E3800010E6027000E61236223632363A127EF5D
:100E480007F029EF07F047EF07F060C068F061C0CE
:100E580069F062C06AF063C06BF06B356B336A335C
:100E68006933683368C060F069C061F06AC062F0D5
:100E78006BC063F06E29D8B444EF07F046EF07F073
:100E880047EF07F06E2B6E29D8B44DEF07F04FEF00
:100E980007F057EF07F06E51D8A455EF07F057EF5A
:100EA80007F068EF07F0000E606F000E616F000E2C
:100EB800626F000E636F6E51D8A465EF07F067EF9D
:100EC80007F068EF07F06C6B6EA16DEF07F06FEF3E
:100ED80007F072EF07F0628F73EF07F0629FD89008
:100EE8006E31636F6CAF7BEF07F07DEF07F07EEF3D
:100EF80007F0638F60C060F061C061F062C062F0AB
:100F080063C063F0120000017151800B7A6F715158
:100F18007125806F70AF93EF07F095EF07F096EFAC
:100F280007F080818051D8B49CEF07F09EEF07F05E
:100F3800B1EF07F08029D8A4A4EF07F0A6EF07F0D7
:100F4800AEEF07F0000E6E6F000E6F6F000E706F41
:100F5800000E716F708FB9EF07F0000E6E6F000E04
:100F68006F6F000E706F000E716F7551800B7A1BDA
:100F7800755175257F6F74AFC4EF07F0C6EF07F0A2
:100F8800C7EF07F07F817F51D8B4CDEF07F0CFEFDF
:100F980007F0E2EF07F07F29D8A4D5EF07F0D7EFE5
:100FA80007F0DFEF07F0000E726F000E736F000E90
:100FB800746F000E756F748FEAEF07F0000E726F92
:100FC800000E736F000E746F000E756F7F51D8B4EA
:100FD800F0EF07F0F2EF07F0FAEF07F08051D8A42E
:100FE800F8EF07F0FAEF07F004EF08F0000E6E6F65
:100FF800000E6F6F000E706F000E716F9AEF09F0A0
:1010080074516E03F3CF85F0F4CF86F085517B6F72
:101018007C6B7D6B7E6B8651816F826B836B846B7F
:1010280073516F03F3CF85F0F4CF86F085517B279A
:10103800000E7C237D237E2386518127000E822388
:101048008323842372517003F3CF85F0F4CF86F0A5
:1010580085517B27000E7C237D237E2386518127A3
:10106800000E8223832384237DC07EF07CC07DF024
:101078007BC07CF07B6B72516F03F3CF85F0F4CFAC
:1010880086F085517B2786517C23000E7D23000E38
:101098007E2373516E03F3CF85F0F4CF86F085512C
:1010A8007B2786517C23000E7D23000E7E237DC086
:1010B8007EF07CC07DF07BC07CF07B6B72516E0350
:1010C800F3CF85F0F4CF86F085517B2786517C23BA
:1010D800000E7D23000E7E2374516F03F3CF85F03D
:1010E800F4CF86F08551812786518223000E832311
:1010F800000E842373517003F3CF85F0F4CF86F08C
:101108008551812786518223000E8323000E842374
:1011180074517003F3CF85F0F4CF86F08551766F64
:101128008651776F786B796B78C079F077C078F0F3
:1011380076C077F0766B7651812777518223785184
:101148008323795184237BC076F07CC077F07DC0FF
:1011580078F07EC079F0190EB7EF08F0D89079339F
:10116800783377337633E82EB2EF08F0765181275B
:101178007751822378518323795184237DC07EF06F
:101188007CC07DF07BC07CF07B6B7F5180C076F0AB
:10119800776B7627000E7723820E7625856FFF0EF4
:1011A8007721866FEDEF08F0D89081378237833743
:1011B80084377EAFE2EF08F0E4EF08F0E5EF08F0DF
:1011C8008181D8907B377C377D377E378507D8A0DB
:1011D800860783AFF2EF08F0F4EF08F0D8EF08F0D5
:1011E8007F6B7EAFFAEF08F0FCEF08F020EF09F014
:1011F800FF0E7B15766FFF0E7C15776FFF0E7D1542
:10120800786F7F0E7E15796F765177117811791185
:10121800D8B411EF09F013EF09F017EF09F0010E38
:101228007F6F20EF09F081A11CEF09F01EEF09F094
:1012380020EF09F013EF09F07F51D8B426EF09F039
:1012480028EF09F04CEF09F0010E8127000E8223E8
:101258008323842384A133EF09F035EF09F04CEFA1
:1012680009F081C076F082C077F083C078F084C03E
:1012780079F07935793378337733763376C081F0FE
:1012880077C082F078C083F079C084F0854B862BD4
:1012980086BF57EF09F0865108E18529D8A057EF96
:1012A80009F059EF09F063EF09F0000E816F000EA5
:1012B800826F800E836F7F0E846F90EF09F086BF78
:1012C80070EF09F0865106E18505D8B06EEF09F098
:1012D80070EF09F07BEF09F0000E816F000E826F4E
:1012E800000E836F000E846F7A6B90EF09F085C053
:1012F80080F0FF0E8117FF0E82177F0E8317000EF6
:10130800841780A18AEF09F08CEF09F08DEF09F0BE
:10131800838FD8908031846F7A51841381C06EF0A6
:1013280082C06FF083C070F084C071F012000001B9
:101338006351800B706F63516325776F62AFA7EFBE
:1013480009F0A9EF09F0AAEF09F077817751D8B42D
:10135800B0EF09F0B2EF09F0C6EF09F07729D8A489
:10136800B8EF09F0BAEF09F0C2EF09F0000E606FAC
:10137800000E616F000E626F000E636F628F636B09
:10138800CEEF09F0000E606F000E616F000E626F05
:10139800000E636F6751800B701B67516725786F6C
:1013A80066AFD9EF09F0DBEF09F0DCEF09F07881DF
:1013B8007851D8B4E2EF09F0E4EF09F0F8EF09F05A
:1013C8007829D8A4EAEF09F0ECEF09F0F4EF09F076
:1013D800000E646F000E656F000E666F000E676F7B
:1013E800668F676B00EF0AF0000E646F000E656F82
:1013F800000E666F000E676F645165116611671104
:10140800D8A409EF0AF00BEF0AF023EF0AF0000E58
:10141800606F000E616F000E626F000E636F800ECA
:1014280062137F0E63137051631360C060F061C074
:1014380061F062C062F063C063F062EF0BF0775155
:10144800D8A429EF0AF02BEF0AF035EF0AF0000EC6
:10145800606F000E616F000E626F000E636F62EFC7
:101468000BF0785177C068F0696B685F000E695BB4
:101478007F0E6825716F000E6921726F60C06CF075
:1014880061C06DF062C06EF063C06FF0000E606FF7
:10149800000E616F000E626F000E636F000E736FB7
:1014A800000E746F000E756F000E766F786B95EFF7
:1014B8000AF07851D8B463EF0AF065EF0AF07CEFD0
:1014C8000AF0D8906C376D376E376F37D890603721
:1014D80061376237633776AF74EF0AF076EF0AF058
:1014E80077EF0AF06081D89073377437753776379D
:1014F80064516C5D65516D5966516E5967516F59EC
:10150800D8A089EF0AF08BEF0AF094EF0AF0768DF5
:1015180064516C5F65516D5B66516E5B67516F5BC3
:10152800782B190E78659BEF0AF09DEF0AF05DEFB6
:101538000AF06C516D116E116F11D8B4A6EF0AF054
:10154800A8EF0AF0C0EF0AF07381C0EF0AF0D89054
:10155800603761376237633776AFB5EF0AF0B7EFB8
:101568000AF0B8EF0AF06081D8907337743775378E
:1015780076377107D8A0720762AFC5EF0AF0C7EFD8
:101588000AF0ABEF0AF0786B76AFCDEF0AF0CFEF49
:101598000AF0F3EF0AF0FF0E7315686FFF0E74156B
:1015A800696FFF0E75156A6F7F0E76156B6F685140
:1015B80069116A116B11D8B4E4EF0AF0E6EF0AF08A
:1015C800EAEF0AF0010E786FF3EF0AF060A1EFEF8F
:1015D8000AF0F1EF0AF0F3EF0AF0E6EF0AF07851BB
:1015E800D8B4F9EF0AF0FBEF0AF01FEF0BF0010E89
:1015F8006027000E61236223632363A106EF0BF0CB
:1016080008EF0BF01FEF0BF060C068F061C069F0E5
:1016180062C06AF063C06BF06B356B336A33693351
:10162800683368C060F069C061F06AC062F06BC07E
:1016380063F0714B722B72BF2AEF0BF0725108E105
:101648007129D8A02AEF0BF02CEF0BF037EF0BF035
:10165800000E726F7169000E606F000E616F000EF0
:10166800626F000E636F72BF44EF0BF0725106E1B8
:101678007105D8B042EF0BF044EF0BF050EF0BF0D0
:10168800726B000E716F000E606F000E616F000EBE
:10169800626F000E636F706B71C077F077A157EFC0
:1016A8000BF059EF0BF05CEF0BF0628F5DEF0BF076
:1016B800629FD8907731636F17EF0AF0120000012C
:1016C800C851D96EDA6ADECFF6FFDDCFF7FF080022
:1016D800F550250AD8A473EF0BF075EF0BF0CFEF98
:1016E8000CF0C851D96EDA6ADE2A000EDD223F6A94
:1016F800000E3E6E3EC0FFF040684168CC6BA1EF23
:101708000BF0FF83C851D96EDA6ADE2A000EDD229B
:10171800A1EF0BF0010ECC6FA1EF0BF0C851D96E01
:10172800DA6ADECFF6FFDDCFF7FF0800F550300AA2
:10173800D8B485EF0BF08EEF0BF0CC51D8B4A7EFEF
:101748000BF0A9EF0BF092EF0BF0C8C060F0C9C026
:1017580061F00FEC1EF060C03EF061C03FF03FBE8C
:10176800BAEF0BF0B8EF0BF0C0EF0BF00001FF8100
:101778003E6C3F1ED8B03F2A0001C851D96EDA6AC4
:10178800DECFF6FFDDCFF7FF0800F5502E0AD8A40C
:10179800D0EF0BF0D2EF0BF0E2EF0BF0C851D96E9F
:1017A800DA6ADE2A000EDD22C8C060F0C9C061F026
:1017B8000FEC1EF060C040F061C041F00001C8515C
:1017C800D96EDA6ADECFD2F0DDCFD3F0D2C0F6FF21
:1017D800D3C0F7FF0800F550750AD8A4F6EF0BF050
:1017E800F8EF0BF029EF0CF0C951D96EDA6A020E46
:1017F800DF26DF5CD96EDA6ADECFCDF0DECFCEF041
:10180800010ED225CA6F000ED321CB6FC851D96EF5
:10181800DA6ACAC0DEFFCBC0DDFF1DEF0CF0C7C01F
:1018280076F0CDC077F0CEC078F075EC15F0E0EF2B
:101838000CF0D2C0F6FFD3C0F7FF0800F550750AC8
:10184800D8B413EF0CF029EF0CF0C851D96EDA6A4E
:10185800DECFD2F0DDCFD3F0D2C0F6FFD3C0F7FF92
:101868000800F5CFD1F044EF0CF0D24BD32B53EF57
:101878000CF06C0ED16F53EF0CF0D16B53EF0CF0F2
:10188800D1514C0AD8B439EF0CF02A0AD8B43DEF3C
:101898000CF00A0AD8B439EF0CF041EF0CF0D2C0C2
:1018A800F6FFD3C0F7FF0800F550660AD8A45FEF2B
:1018B8000CF061EF0CF0C6EF0CF08BEF0CF0C95197
:1018C800D96EDA6ADFCFCAF0040EDF26CA51D96EA4
:1018D800DA6ADECFCDF0DECFCEF0DECFCFF0DECFCE
:1018E800D0F096EF0CF0C951D96EDA6ADFCFCAF0A2
:1018F800040EDF26CA51D96EDA6ADECFCDF0DECF0C
:10190800CEF0DECFCFF0DECFD0F096EF0CF0D15195
:101918004C0AD8B477EF0CF0200AD8B463EF0CF077
:1019280096EF0CF0010ED225CA6F000ED321CB6FB3
:10193800C851D96EDA6ACAC0DEFFCBC0DDFFBAEF84
:101948000CF0C7C093F0CDC094F0CEC095F0CFC0D6
:1019580096F0D0C097F0D2C0F6FFD3C0F7FF0800CA
:10196800F5CF98F009EC00F0E0EF0CF0D2C0F6FFEC
:10197800D3C0F7FF0800F550660AD8B4A5EF0CF0FD
:10198800C6EF0CF00001C851D96EDA6ADE2A000EE3
:10199800DD22E0EF0CF0C851D96EDA6ADECFF6FF2F
:1019A800DDCFF7FF0800F550606F616BC7C062F0CC
:1019B800ABEC1CF0C6EF0CF0120036C0A0F037C03C
:1019C800A1F038C0A2F039C0A3F08FC0A0F090C039
:1019D800A1F091C0A2F092C0A3F0810E0001946F13
:1019E800FF0E956FA0C096F0A1C097F0A2C098F026
:1019F800A3C099F0180E06EF0DF0D89099339833DC
:101A080097339633E82E01EF0DF0965194259E6F8B
:101A1800000E95219F6F9FBF1BEF0DF09F5109E1AD
:101A2800170E9E5DD8A01BEF0DF01DEF0DF06AEFAD
:101A38000DF09351D96EDA6A8FC0DEFF90C0DEFFD9
:101A480091C0DEFF92C0DEFF800E9E199F11D8A4C0
:101A580030EF0DF032EF0DF058EF0DF0A0C094F01C
:101A6800A1C095F0A2C096F0A3C097F0090ED89037
:101A78009437953796379737E82E3BEF0DF094510A
:101A8800951196119711D8B44CEF0DF04EEF0DF05B
:101A980058EF0DF08FC08FF090C090F091C091F08A
:101AA80092C092F0FFEF0DF0000EA017000EA117E4
:101AB800000EA217800EA317A0C08FF0A1C090F04F
:101AC800A2C091F0A3C092F0FFEF0DF09FBF71EF9D
:101AD8000DF06FEF0DF086EF0DF0000EA017000E61
:101AE800A117000EA217800EA3179351D96EDA6AB8
:101AF800A0C0DEFFA1C0DEFFA2C0DEFFA3C0DEFFE4
:101B08004EEF0DF09EC094F0FF0E956FFF0E966F8E
:101B18007F0E976F000E986F946795EF0DF09DEF0D
:101B28000DF098359833973396339533942F90EF7B
:101B38000DF095C09AF096C09BF097C09CF098C0A5
:101B48009DF000019A51A015946F9B51A115956FB6
:101B58009C51A215966F9D51A315976F945195119D
:101B680096119711D8A4BBEF0DF0BDEF0DF0CAEF99
:101B78000DF09351D96EDA6A8FC0DEFF90C0DEFF98
:101B880091C0DEFF92C0DEFF58EF0DF09A1D946FF2
:101B98009B1D956F9C1D966F9D1D976F9451A01767
:101BA8009551A1179651A2179751A3179351D96E22
:101BB800DA6AA0C0DEFFA1C0DEFFA2C0DEFFA3C0BC
:101BC800DEFF8FC087F090C088F091C089F092C086
:101BD8008AF0A0C08BF0A1C08CF0A2C08DF0A3C089
:101BE8008EF004EC25F087C08FF088C090F089C093
:101BF80091F08AC092F012000600E1CF22F0E2CF05
:101C080023F0D9CF24F0DACF25F0F3CF26F0F4CFA4
:101C180027F0F6CF28F0F7CF29F0F8CF2AF0F5CF44
:101C28002BF0F2A01AEF0EF01CEF0EF054EF0EF0AE
:101C380081CF2DF02D380F0B010B2C6E2C04D8A45E
:101C480028EF0EF02AEF0EF032EF0EF05250D8B413
:101C580030EF0EF032EF0EF042EF0EF02C50D8A419
:101C680038EF0EF03AEF0EF04AEF0EF05204D8A417
:101C780040EF0EF042EF0EF04AEF0EF0010E436E09
:101C880081CF2DF02D380F0B010B526E81AC4FEF29
:101C98000EF051EF0EF053EF0EF0010E426EF2907F
:101CA800F0A259EF0EF05BEF0EF006EF0FF0010E09
:101CB800556E5150C0EC26F04C6E0101BC51C0EC81
:101CC80026F04B6E0101BB51C0EC26F04A6E4F5016
:101CD800C0EC26F0486E4E50C0EC26F0476E4D50D2
:101CE800C0EC26F0466ECCEF0EF0060E1B6E4AC016
:101CF8001CF0550E1D6E010E03EC11F04A6ECCEF70
:101D08000EF0090E1B6E4BC01CF0550E1D6E010E19
:101D180003EC11F04B6ECCEF0EF0010E1B6E48C0B9
:101D28001CF0550E1D6E020E03EC11F0486ECCEF40
:101D38000EF0040E1B6E47C01CF0550E1D6E020EF1
:101D480003EC11F0476ECCEF0EF0070E1B6E46C089
:101D58001CF0550E1D6E020E03EC11F0466ECCEF12
:101D68000EF05550010AD8B479EF0EF0030AD8B432
:101D780085EF0EF0010AD8B491EF0EF0070AD8B437
:101D88009DEF0EF0010AD8B4A9EF0EF0CCEF0EF0DB
:101D980082A4D1EF0EF0D3EF0EF0B5EF0EF04BC0EA
:101DA8000FF04AC010F049C011F048C012F047C007
:101DB80013F046C014F04C50D8EC22F01A0E216EE5
:101DC800F80EE82EFED7212EFCD700D04B50BAECE7
:101DD80024F00F6E4A50FEEC23F0106E49C011F04B
:101DE8004850DFEC24F0126E475095EC24F0136E47
:101DF800465070EC24F0146E4C5025EC24F0A4EC02
:101E080026F0F0922BC0F5FF2AC0F8FF29C0F7FF93
:101E180028C0F6FF27C0F4FF26C0F3FF25C0DAFF6D
:101E280024C0D9FF23C0E2FF22C0E1FF01921100C4
:101E38002EC089F02FC08AF030C08BF031C08CF0F2
:101E480079C089F07AC08AF07BC08BF07CC08CF0B6
:101E5800810E00017D6FFF0E7E6F89C07FF08AC002
:101E680080F08BC081F08CC082F0180E41EF0FF02B
:101E7800D8908233813380337F33E82E3CEF0FF0E4
:101E88007F517D25876F000E7E21886F88BF56EFB2
:101E98000FF0885109E1170E875DD8A056EF0FF0B3
:101EA80058EF0FF062EF0FF079C079F07AC07AF04E
:101EB8007BC07BF07CC07CF026EF10F088BF67EF1A
:101EC8000FF069EF0FF0DAEF0FF087C07DF0FF0E2B
:101ED8007E6FFF0E7F6F7F0E806F000E816F7D67B4
:101EE80078EF0FF080EF0FF08135813380337F3347
:101EF8007E337D2F73EF0FF07EC083F07FC084F0B8
:101F080080C085F081C086F00001835189157D6FFE
:101F180084518A157E6F85518B157F6F86518C157C
:101F2800806F7D517E117F118011D8A49EEF0FF034
:101F3800A0EF0FF0A2EF0FF058EF0FF089C07DF07F
:101F48008AC07EF08BC07FF08CC080F0200EB2EF8C
:101F58000FF0D89080337F337E337D33E82EADEF9A
:101F68000FF07D517E117F118011D8B4BEEF0FF0B4
:101F7800C0EF0FF0C8EF0FF08351892784518A23EF
:101F880085518B2386518C23831D7D6F841D7E6F25
:101F9800851D7F6F861D806F7D5189177E518A1739
:101FA8007F518B1780518C171EEF10F089C07DF080
:101FB8008AC07EF08BC07FF08CC080F0200EEAEFE4
:101FC8000FF0D89080337F337E337D33E82EE5EFF2
:101FD8000FF07D517E117F118011D8A4F6EF0FF01C
:101FE800F8EF0FF002EF10F0000E896F000E8A6F05
:101FF800000E8B6F000E8C6F1EEF10F0D890893595
:102008007D6F8A357E6F8B357F6F8C35806F7D5104
:102018007E117F118011D8B414EF10F016EF10F074
:102028001EEF10F0000E896F000E8A6F800E8B6F06
:10203800BF0E8C6F89C079F08AC07AF08BC07BF0B4
:102048008CC07CF012000001686F00016851D8B4A0
:1020580030EF10F032EF10F054EF10F063BF39EFAB
:1020680010F037EF10F054EF10F060C064F061C06A
:1020780065F062C066F063C067F0641F651F661F85
:10208800671F642B000E65236623672364C06AF00C
:1020980065C06BF066C06CF067C06DF05CEF10F067
:1020A80060C06AF061C06BF062C06CF063C06DF034
:1020B8006051611162116311D8A465EF10F067EFE8
:1020C80010F071EF10F0000E606F000E616F000EDF
:1020D800626F000E636F02EF11F0960E696F7BEF6F
:1020E80010F0692BD8906D336C336B336A33000E64
:1020F8006A15646F000E6B15656F000E6C15666FC0
:10210800FE0E6D15676F6451651166116711D8A4CD
:1021180090EF10F092EF10F075EF10F0A0EF10F0C4
:10212800692B010E6A27000E6B236C236D23D89050
:102138006D336C336B336A33000E6A15646F000EAF
:102148006B15656F000E6C15666FFF0E6D15676F6A
:102158006451651166116711D8A4B5EF10F0B7EF97
:1021680010F094EF10F0BFEF10F06907D8906A37BD
:102178006B376C376D376CBFC4EF10F0C6EF10F0DB
:10218800CEEF10F0020E6961CCEF10F0CEEF10F038
:10219800B9EF10F069B1D3EF10F0D5EF10F0D6EF2A
:1021A80010F06C9FD890693369C064F0656B666BFA
:1021B800676B64C067F0666B656B646B64516A1328
:1021C80065516B1366516C1367516D136851D8B420
:1021D800F0EF10F0F2EF10F0FAEF10F063BFF9EF44
:1021E80010F0F7EF10F0FAEF10F06D8F6AC060F0A2
:1021F8006BC061F06CC062F06DC063F01200206EBD
:102208008BEF11F0020E1F6E040E1E6EBA0EE82E32
:10221800FED71E2EFCD71F2EFAD700D01C2A1D5021
:10222800D96EDA6ADE04D8A41CEF11F01EEF11F0A3
:1022380027EF11F0170E1C6424EF11F026EF11F0B0
:1022480027EF11F01C6A1D50D96EDA6A020EDE18EB
:10225800D8A431EF11F033EF11F03CEF11F03B0E41
:102268001C6439EF11F03BEF11F03CEF11F01C6AE0
:102278001D50D96EDA6A030EDE18D8A446EF11F0A5
:1022880048EF11F052EF11F01F0E1C644EEF11F0E1
:1022980050EF11F052EF11F0010E1C6E1D50D96E67
:1022A800DA6A040EDE18D8A45CEF11F05EEF11F0C4
:1022B80068EF11F00C0E1C6464EF11F066EF11F07A
:1022C80068EF11F0010E1C6E1D50D96EDA6A050E0A
:1022D800DE18D8A472EF11F074EF11F07DEF11F051
:1022E800630E1C647AEF11F07CEF11F07DEF11F0B2
:1022F8001C6A1BC005F02050A8EC22F01C50106E80
:10230800116A126A136A020E146E19EC14F082B084
:1023180090EF11F092EF11F006EF11F01BC005F0ED
:102328002050A8EC22F0820E1E6EDE0EE82EFED79C
:102338001E2EFCD7FC0E0F6E7F0E106E31EC21F0B6
:102348001BC005F02050A8EC22F0820E1E6EDE0E97
:10235800E82EFED71E2EFCD71C50106E116A126A8A
:10236800136A020E146E19EC14F082B2BEEF11F06B
:10237800C0EF11F0C2EF11F004EF11F01D50D96E4B
:10238800DA6ADF2A020E1F6E450E1E6EAA0EE82EAE
:10239800FED71E2EFCD71F2EFAD71C501200D19044
:1023A800D3508F0B6009D36E0E0EC16E956A070E5F
:1023B8009412BAEC20F0D9EC26F0F4EC26F077EC85
:1023C80026F014EC27F0E4EC26F067EC26F0D30EA8
:1023D8000001776F010E786F010E796F4AEC25F0D6
:1023E800510E0001636FBC0E646F010E656FBB0E6A
:1023F800666F010E676F500E686F4F0E696F4E0E55
:102408006A6F4D0E6B6F0CEC1FF01A0E0101D16F45
:10241800F80EE82EFED7D12FFCD70000BCC16CF017
:10242800BBC16DF050C06EF04FC06FF04EC070F081
:102438004DC071F03A0E33EC23F0AEEC23F01A0ED7
:102448000101D16FF80EE82EFED7D12FFCD700007E
:10245800D7EC23F0BCC101F1BBC100F10400510E5F
:102468000001636FBC0E646F010E656FBB0E666F73
:10247800010E676F500E686F4F0E696F4E0E6A6FD0
:102488004D0E6B6FA8EC1FF00D0E0101D16FFB0E06
:10249800E82EFED7D12FFCD700D0BCC1C0F1BBC1FC
:1024A800C1F150C0C2F14FC0C3F14EC0C4F14DC01C
:1024B800C5F1515096EC17F0515087EC26F01E0AE2
:1024C800D8A469EF12F06BEF12F06DEF12F096ECF2
:1024D80026F01A0E0101D16FF80EE82EFED7D12F83
:1024E800FCD700004350D8B47CEF12F07EEF12F016
:1024F80081EF12F0436ABBEC1EF04250D8B487EF6C
:1025080012F089EF12F08CEF12F0426AD3EC14F05B
:10251800020E0101D26F860ED16F990EE82EFED7FA
:10252800D12FFCD7D22FFAD732EF12F007EF00F0F5
:1025380000017D6B7ABFA5EF12F0A3EF12F0BFEF99
:1025480012F077C060F078C061F079C062F07AC0AC
:1025580063F0FF0E646FFF0E656FFF0E666FFF0E70
:10256800676FA6EC21F060C077F061C078F062C0B8
:1025780079F063C07AF077C07EF078C07FF079C0D8
:1025880080F07AC081F000017D2B81BFD9EF12F075
:10259800815180117F1107E10A0E7E5DD8B0D7EF17
:1025A80012F0D9EF12F0DBEF12F0F7EF12F07EC065
:1025B80060F07FC061F080C062F081C063F00A0EF5
:1025C800646F000E656F000E666F000E676F07EC94
:1025D80016F060C07EF061C07FF062C080F063C01A
:1025E80081F0C7EF12F07B517D5DD8A0FEEF12F0AD
:1025F80000EF13F002EF13F009EF13F0200E19ECBF
:1026080019F000017B07F7EF12F077C07EF078C071
:102618007FF079C080F07AC081F0010E7C6F31EFD5
:1026280013F07EC060F07FC061F080C062F081C0AE
:1026380063F00A0E646F000E656F000E666F000E81
:10264800676F07EC16F060C07EF061C07FF062C073
:1026580080F063C081F000017C2B7D517C5DD8A0A7
:1026680038EF13F03AEF13F015EF13F07EC06AF06D
:102678007FC06BF080C06CF081C06DF00A0E6E6F89
:10268800000E6F6F000E706F000E716FFFEC1AF086
:1026980000016A51300F19EC19F000017D077D51D6
:1026A800D8A459EF13F05BEF13F009EF13F0120001
:1026B8000001A951AA6FAB6B010EAA27000EAB232C
:1026C800A851AC6FAD6BAA51AC5DAD51800AAE6F2D
:1026D800AB51800AAE59D8A074EF13F076EF13F01F
:1026E8007DEF13F0A951A85DAA6FAA05A86F7EEF28
:1026F80013F0A86BA7BF85EF13F083EF13F09FEFDC
:1027080013F0A4C06EF0A5C06FF0A6C070F0A7C00B
:1027180071F0000E726F000E736F800E746FBF0E33
:10272800756F87EC07F06EC0A4F06FC0A5F070C09D
:10273800A6F071C0A7F0A4C08FF0A5C090F0A6C005
:1027480091F0A7C092F0B40E0001936FE1EC0CF089
:102758008FC0B0F090C0B1F091C0B2F092C0B3F0A9
:10276800B4C060F0B5C061F0B6C062F0B7C063F045
:1027780012EC17F060C077F061C078F062C079F0B1
:1027880063C07AF0A8C07BF09CEC12F02E0EEDEC42
:1027980026F00001AF6B0FEF14F0B0C06EF0B1C0BF
:1027A8006FF0B2C070F0B3C071F0000E726F000E1F
:1027B800736F200E746F410E756F87EC07F06EC053
:1027C800B0F06FC0B1F070C0B2F071C0B3F0B0C07B
:1027D80060F0B1C061F0B2C062F0B3C063F012EC57
:1027E80017F060C06AF061C06BF062C06CF063C043
:1027F8006DF00A0E00016E6F000E6F6F000E706FA5
:10280800000E716FFFEC1AF000016A51300F19ECDD
:1028180019F00001AF2BA951AF5DD8A016EF14F045
:1028280018EF14F0D1EF13F01200166A13BE21EF5F
:1028380014F01FEF14F03BEF14F010C002F011C0B9
:1028480003F012C004F013C005F0FF0E066EFF0E71
:10285800076EFF0E086EFF0E096EDCEC21F002C059
:1028680010F003C011F004C012F005C013F010C03E
:1028780017F011C018F012C019F013C01AF0162A78
:102888001ABE54EF14F01A501910181007E10A0E66
:10289800175CD8B052EF14F054EF14F056EF14F060
:1028A80072EF14F017C002F018C003F019C004F05A
:1028B8001AC005F00A0E066E000E076E000E086EAE
:1028C800000E096E8DEC16F002C017F003C018F068
:1028D80004C019F005C01AF043EF14F01450165C48
:1028E800D8A079EF14F07BEF14F07DEF14F083EFAC
:1028F80014F0200E0FEC1AF0140672EF14F010C04A
:1029080017F011C018F012C019F013C01AF0010E18
:10291800156EAAEF14F017C002F018C003F019C022
:1029280004F01AC005F00A0E066E000E076E000EBF
:10293800086E000E096E8DEC16F002C017F003C089
:1029480018F004C019F005C01AF0152A1650155CC5
:10295800D8A0B1EF14F0B3EF14F08FEF14F017C054
:1029680002F018C003F019C004F01AC005F00A0EEE
:10297800066E000E076E000E086E000E096E75ECEE
:102988001BF00250300F0FEC1AF016061650D8A4A0
:10299800D0EF14F0D2EF14F083EF14F0120001011D
:1029A800C76B015187EC26F00101C86F005187EC15
:1029B80026F00101C96F220E0001616F7F0E626F60
:1029C8003BEC20F0ED0E0001616F7E0E626F3BEC78
:1029D80020F08C0E0001616F7F0E626F3BEC20F0DF
:1029E8003EEF15F0BD0E0001636F010E646FBE0E61
:1029F800656F010E666FBF0E676F010E686FC7C106
:102A080069F044EC22F00101BF29D8A40EEF15F0BB
:102A180010EF15F019EF15F0E50E0001616F7F0E4C
:102A2800626F3BEC20F026EF15F0BEC1FAF0BFC193
:102A3800FBF0370E0001FC6F020EFD6F0101BD5166
:102A48005CEC23F00101C72BC82B3C0EC819D8A495
:102A580030EF15F032EF15F03EEF15F0C86BC92BCB
:102A6800180EC919D8A43BEF15F03DEF15F03EEF4D
:102A780015F0C96B0101C851C26FC36BBC5187EC1B
:102A880026F00101C46FFF0EC425C56FC66BFF0E8B
:102A9800C623C251C51907E1C351C619D8A457EFB7
:102AA80015F059EF15F065EF15F0BB5187EC26F0DE
:102AB8000101C919D8B463EF15F065EF15F06DEF92
:102AC80015F03B0EC7656BEF15F06DEF15F0F6EFDF
:102AD80014F0570E0001616F7F0E626F3BEC20F01F
:102AE800120041BE7AEF15F07CEF15F07EEF15F07D
:102AF8000001FF9341BE85EF15F083EF15F08BEFD2
:102B080015F000017A6B010E796F8FEF15F040C058
:102B180079F041C07AF03EC07BF03FC07CF0000104
:102B28007E6B4F0E7D6F0101516BC4EF15F07D0771
:102B3800D8A07E07020E7D25D96E010E7E21DA6EA1
:102B480077C060F078C061F0636B0A0E626F11ECB9
:102B580022F000016051300FDF6E7907D8A07A07A4
:102B68007B07D8A07C0777C060F078C061F0636B02
:102B78000A0E626F6CEC21F060C077F061C078F0EB
:102B880000017D517E11D8B4CCEF15F0CEEF15F0D1
:102B9800F8EF15F077517811D8A4D5EF15F0D7EFE5
:102BA80015F09BEF15F07ABFE4EF15F07A5106E1C6
:102BB8007905D8B0E2EF15F0E4EF15F09BEF15F0CA
:102BC8007CBFEFEF15F07C5108E17B05D8A0EFEF53
:102BD80015F0F1EF15F0F8EF15F0FFB3F6EF15F07B
:102BE800F8EF15F09BEF15F076C06EF0020E7D251C
:102BF8006F6F010E7E21706F7BC071F07CC072F028
:102C0800F2EC1FF012000001696B67BF10EF16F0BD
:102C18000EEF16F01AEF16F0671F661F651F646D3A
:102C2800000E652366236723010E696F63BF21EFDA
:102C380016F01FEF16F02BEF16F0631F621F611FCF
:102C4800606D000E612362236323010E691B000E71
:102C58006A6F000E6B6F000E6C6F000E6D6F645123
:102C6800651166116711D8B43CEF16F03EEF16F007
:102C780074EF16F0010E686F48EF16F0D8906437BD
:102C8800653766376737682B67AF4DEF16F04FEF3C
:102C980016F042EF16F0D8906A376B376C376D37FD
:102CA8006451605D65516159665162596751635954
:102CB800D8A061EF16F063EF16F06CEF16F06451D0
:102CC800605F6551615B6651625B6751635B6A81F6
:102CD800D8906733663365336433682F4FEF16F047
:102CE8006951D8B47AEF16F07CEF16F084EF16F03D
:102CF8006D1F6C1F6B1F6A6D000E6B236C236D2399
:102D08006AC060F06BC061F06CC062F06DC063F0C7
:102D180012000B6A09BE95EF16F093EF16F09FEFBD
:102D280016F0091E081E071E066C000E0722082250
:102D38000922010E0B6E05BEA6EF16F0A4EF16F0E1
:102D4800B0EF16F0051E041E031E026C000E0322CF
:102D580004220522010E0B1A000E0C6E000E0D6ED9
:102D6800000E0E6E000E0F6E0650071008100910A8
:102D7800D8B4C1EF16F0C3EF16F0F9EF16F0010E54
:102D88000A6ECDEF16F0D8900636073608360936A3
:102D98000A2A09AED2EF16F0D4EF16F0C7EF16F0F4
:102DA800D8900C360D360E360F360650025C07509A
:102DB80003580850045809500558D8A0E6EF16F0F3
:102DC800E8EF16F0F1EF16F00650025E0750035ACE
:102DD8000850045A0950055A0C80D8900932083214
:102DE800073206320A2ED4EF16F00B50D8B4FFEF94
:102DF80016F001EF17F009EF17F00F1E0E1E0D1E4B
:102E08000C6C000E0D220E220F220CC002F00DC019
:102E180003F00EC004F00FC005F012000001623587
:102E28006335696F6951D8A41CEF17F01EEF17F0CE
:102E380028EF17F0000E606F000E616F000E626FD2
:102E4800000E636F95EF17F060C064F061C065F025
:102E580062C066F063C067F0200E38EF17F0D890B4
:102E68006733663365336433E82E33EF17F0645104
:102E7800686F628FFF0E6017FF0E6117FF0E6217F3
:102E8800000E6317960E695F69BF4FEF17F04DEF9D
:102E980017F065EF17F06951800A970FD8B057EF10
:102EA80017F059EF17F05BEF17F01EEF17F0D890F7
:102EB8006333623361336033693F5BEF17F07DEF53
:102EC80017F01F0E69656BEF17F06DEF17F075EFD0
:102ED80017F01EEF17F0D890603761376237633705
:102EE80069076951D8A47BEF17F07DEF17F06FEFF2
:102EF80017F06851D8B483EF17F085EF17F08DEF0E
:102F080017F0631F621F611F606D000E612362234B
:102F1800632360C060F061C061F062C062F063C0AA
:102F280063F012000001FD6F010E0001636F010ED6
:102F380076EC22F0890E0001DA6F010EDB6FC10E0C
:102F4800DC6F7F0EDD6F0101C15187EC26F00001B7
:102F5800FA6FFA51DE6FDF6B0101C05187EC26F082
:102F68000001FB6FFB51E06FE16BFD5187EC26F030
:102F78000001FC6FFC51E26FE36BAEEC25F0890EAB
:102F88000001776F010E786F7CEC20F0010E0001D4
:102F9800636F020E76EC22F0520E0001DA6F010E1A
:102FA800DB6FD50EDC6F7F0EDD6F0101C35187EC3F
:102FB80026F00001FA6FFA51DE6FDF6B0101C45190
:102FC80087EC26F00001FB6FFB51E06FE16B01011C
:102FD800C55187EC26F00001FC6FFC51E26FE36BF2
:102FE800AEEC25F0520E0001776F010E786F7CEC85
:102FF80020F03AC0A4F03BC0A5F03CC0A6F03DC00C
:10300800A7F0020E0001A86F020EA96F5CEC13F086
:103018000F0E0001636F020E76EC22F0010EEDEC4C
:1030280026F0430EEDEC26F01200000E0001871585
:103038008F6F000E8815906F800E8915916F7F0E27
:103048008A15926F8F51901191119211D8A42FEF78
:1030580018F031EF18F039EF18F0000E876F000EF6
:10306800886F000E896F000E8A6F000E8B158F6FA8
:10307800000E8C15906F800E8D15916F7F0E8E153A
:10308800926F8F51901191119211D8A44EEF18F0B0
:1030980050EF18F058EF18F0000E8B6F000E8C6F81
:1030A800000E8D6F000E8E6F8AAF5DEF18F05FEF28
:1030B80018F068EF18F0876D881FD8B0882B891F23
:1030C800D8B0892B800E8A578EAF6DEF18F06FEF4E
:1030D80018F078EF18F08B6D8C1FD8B08C2B8D1FE3
:1030E800D8B08D2B800E8E57000E871B000E881BC4
:1030F800000E891B800E8A1B000E8B1B000E8C1B7A
:10310800000E8D1B800E8E1B8B51875D8C5188594C
:103118008D5189598E518A59D8B095EF18F097EF8B
:1031280018F09AEF18F0D8909BEF18F0D88012009A
:1031380032C06AF033C06BF034C06CF035C06DF04B
:1031480060C06AF061C06BF062C06CF063C06DF083
:103158006AC064F06BC065F06CC066F06DC067F063
:10316800180EBDEF18F00001D89067336633653349
:103178006433E82EB7EF18F06451686F696B6851D3
:103188006911D8A4CAEF18F0CCEF18F0EAEF18F0DC
:10319800D8906A35646F6B35656F6C35666F6D35C1
:1031A800676F6451651166116711D8A4DEEF18F0D6
:1031B800E0EF18F0E5EF18F0616B020E606F18EFA2
:1031C80019F0616B030E606F18EF19F06829691127
:1031D800D8A4F1EF18F0F3EF18F015EF19F06AC062
:1031E80064F06BC065F06CC066F06DC067F0090EE6
:1031F800D8906437653766376737E82EFCEF18F0E4
:103208006451651166116711D8B40DEF19F010EF0C
:1032180019F0010E11EF19F0000E606F616B18EFD5
:1032280019F0616B040E606F12000001766F8982DD
:103238000001746B76AF01D0742B010E74177447BC
:103248008C507419FD0B74198C6E76C074F0060ED0
:10325800756FD8907433752F2DEF19F0010E741710
:103268008C507419FE0B74198C6E76C074F0050EB0
:10327800756FD8907433752F3DEF19F0010E7417E0
:10328800743B89507419EF0B7419896E76C074F009
:10329800743B0F0E7417010E741774477447744704
:1032A80089507419F70B7419896E02EC27F076C0EF
:1032B80074F00001D8907433D8907433D890743374
:1032C800010E741774478C507419FD0B74198C6EA9
:1032D80076C074F0D8907433D8907433010E741794
:1032E8008C507419FE0B74198C6E76C074F0D890DB
:1032F8007433010E7417743B89507419EF0B7419E9
:10330800896E76C074F0010E741774477447744759
:1033180089507419F70B7419896E02EC27F01200A2
:103328000001626F89920001606B62AF01D0602B6F
:10333800010E601760478C506019FD0B60198C6E88
:1033480062C060F0060E616FD8906033612FA8EFFD
:1033580019F0010E60178C506019FE0B60198C6E05
:1033680062C060F0050E616FD8906033612FB8EFCE
:1033780019F0010E6017603B89506019EF0B601956
:10338800896E62C060F0603B0F0E6017010E601717
:1033980060476047604789506019F70B6019896E6C
:1033A80002EC27F062C060F00001D8906033D8903A
:1033B8006033D8906033010E601760478C506019F5
:1033C800FD0B60198C6E62C060F0D8906033D890A5
:1033D8006033010E60178C506019FE0B60198C6EFB
:1033E80062C060F0D8906033010E6017603B89506E
:1033F8006019EF0B6019896E62C060F0010E6017EA
:1034080060476047604789506019F70B6019896EFB
:1034180002EC27F012000E6E89820C6A0EAE01D003
:103428000C2A010E0C160C468C500C18FD0B0C18AF
:103438008C6E0EC00CF0060E0D6ED8900C320D2E50
:1034480021EF1AF0010E0C168C500C18FE0B0C18FC
:103458008C6E0EC00CF0050E0D6ED8900C320D2E31
:1034680031EF1AF0010E0C160C3A89500C18EF0BBC
:103478000C18896E0EC00CF00C3A0F0E0C16010ECB
:103488000C160C460C460C4689500C18F70B0C18F9
:10349800896E08EC27F00EC00CF0D8900C32D8904A
:1034A8000C32D8900C32010E0C160C468C500C18AD
:1034B800FD0B0C188C6E0EC00CF0D8900C32D89006
:1034C8000C32010E0C168C500C18FE0B0C188C6E5E
:1034D8000EC00CF0D8900C32010E0C160C3A895024
:1034E8000C18EF0B0C18896E0EC00CF0010E0C16A0
:1034F8000C460C460C4689500C18F70B0C18896EB4
:1035080008EC27F01200046E8992026A04AE01D01A
:10351800022A010E021602468C500218FD0B0218F0
:103528008C6E04C002F0060E036ED8900232032E91
:1035380099EF1AF0010E02168C500218FE0B0218B1
:103548008C6E04C002F0050E036ED8900232032E72
:10355800A9EF1AF0010E0216023A89500218EF0B71
:103568000218896E04C002F0023A0F0E0216010E0C
:10357800021602460246024689500218F70B021844
:10358800896E08EC27F004C002F0D8900232D89077
:103598000232D8900232010E021602468C500218EE
:1035A800FD0B02188C6E04C002F0D8900232D8903D
:1035B8000232010E02168C500218FE0B02188C6E95
:1035C80004C002F0D8900232010E0216023A895065
:1035D8000218EF0B0218896E04C002F0010E0216E1
:1035E80002460246024689500218F70B0218896EF5
:1035F80008EC27F012000001736B6DBF08EF1BF099
:1036080006EF1BF012EF1BF06D1F6C1F6B1F6A6D2E
:10361800000E6B236C236D23010E736F71BF19EFBE
:103628001BF017EF1BF021EF1BF0711F701F6F1FAE
:103638006E6D000E6F23702371236E516F11701120
:103648007111D8B42AEF1BF02CEF1BF05CEF1BF0C4
:10365800010E726F36EF1BF0D8906E376F377037E8
:103668007137722B71AF3BEF1BF03DEF1BF030EF62
:103678001BF06E516A5D6F516B5970516C597151E5
:103688006D59D8A04AEF1BF04CEF1BF054EF1BF01C
:103698006E516A5F6F516B5B70516C5B71516D5B02
:1036A800D890713370336F336E33722F3DEF1BF048
:1036B8007351D8B462EF1BF064EF1BF06CEF1BF092
:1036C8006D1F6C1F6B1F6A6D000E6B236C236D23BF
:1036D8006AC06AF06BC06BF06CC06CF06DC06DF0C6
:1036E80012000B6A05BE7DEF1BF07BEF1BF087EF26
:1036F8001BF0051E041E031E026C000E032204228A
:103708000522010E0B6E09BE8EEF1BF08CEF1BF02D
:1037180096EF1BF0091E081E071E066C000E0722F6
:10372800082209220650071008100910D8B49FEF84
:103738001BF0A1EF1BF0D1EF1BF0010E0A6EABEFEF
:103748001BF0D89006360736083609360A2A09AE1D
:10375800B0EF1BF0B2EF1BF0A5EF1BF00650025CB8
:10376800075003580850045809500558D8A0BFEF0F
:103778001BF0C1EF1BF0C9EF1BF00650025E0750AB
:10378800035A0850045A0950055AD8900932083289
:10379800073206320A2EB2EF1BF00B50D8B4D7EF1F
:1037A8001BF0D9EF1BF0E1EF1BF0051E041E031EF2
:1037B800026C000E03220422052202C002F003C09C
:1037C80003F004C004F005C005F012000001656BA9
:1037D80063BFF3EF1BF0F1EF1BF0F9EF1BF0626D25
:1037E800631FD8B0632B010E656F61BF00EF1CF03B
:1037F800FEEF1BF006EF1CF0606D611FD8B0612B67
:10380800010E651B676B000E666F62516311D8B4B9
:1038180010EF1CF012EF1CF03AEF1CF0010E646F71
:103828001AEF1CF0D89062376337642B63AF1FEF31
:103838001CF021EF1CF016EF1CF0D89066376737A4
:103848006251605D63516159D8A02DEF1CF02FEFD4
:103858001CF034EF1CF06251605F6351615B66815C
:10386800D89063336233642F21EF1CF06551D8B4CC
:1038780040EF1CF042EF1CF046EF1CF0666D671F2E
:10388800D8B0672B66C060F067C061F01200076AA5
:1038980005BE53EF1CF051EF1CF059EF1CF0046CFF
:1038A800051ED8B0052A010E076E03BE60EF1CF096
:1038B8005EEF1CF066EF1CF0026C031ED8B0032A02
:1038C800010E071A096A000E086E04500510D8B4D4
:1038D80070EF1CF072EF1CF09AEF1CF0010E066EF0
:1038E8007AEF1CF0D89004360536062A05AE7FEF2D
:1038F8001CF081EF1CF076EF1CF0D89008360936E2
:103908000450025C05500358D8A08DEF1CF08FEFCF
:103918001CF094EF1CF00450025E0550035A088016
:10392800D89005320432062E81EF1CF00750D8B427
:10393800A0EF1CF0A2EF1CF0A6EF1CF0086C091E0B
:10394800D8B0092A08C002F009C003F0120000012B
:103958006251D8B4B2EF1CF0B4EF1CF0BCEF1CF00D
:103968006251D8A4BAEF1CF0BCEF1CF0C1EF1CF0F8
:1039780060512FEC27F008EF1DF06251D96EDA6A1A
:10398800090ED926DE50DE10D8B4CDEF1CF0CFEFEB
:103998001CF0E8EF1CF06251D96EDA6A090ED926DC
:1039A8006251E16EE26A020EE126DE50E65CE65004
:1039B800800A676FDE50800A6759D8B0E6EF1CF0BE
:1039C800E8EF1CF008EF1DF06251D96EDA6A020EBA
:1039D800D926DECF63F0DDCF64F06251D96EDA6AA2
:1039E800DECF65F0DDCF66F063516525D96E645191
:1039F8006621DA6E60C0DFFF6251D96EDA6A020EA4
:103A0800D926DE2A000EDD2212000001656B61BF97
:103A180012EF1DF010EF1DF018EF1DF0606D611F23
:103A2800D8B0612B010E656F63BF1FEF1DF01DEF4E
:103A38001DF023EF1DF0626D631FD8B0632B625138
:103A48006311D8B42AEF1DF02CEF1DF050EF1DF0D4
:103A5800010E646F34EF1DF0D89062376337642B22
:103A680063AF39EF1DF03BEF1DF030EF1DF06251F1
:103A7800605D63516159D8A044EF1DF046EF1DF019
:103A88004AEF1DF06251605F6351615BD890633308
:103A98006233642F3BEF1DF06551D8B456EF1DF02B
:103AA80058EF1DF05CEF1DF0606D611FD8B0612B01
:103AB80060C060F061C061F012000001FA6FC9C116
:103AC800DAF0CAC1DBF0810E0001DC6F7E0EDD6F1B
:103AD8000101C25187EC26F00101CB6FCB510001E7
:103AE800DE6FDF6B0101C35187EC26F00101CC6F5B
:103AF800CC510001E06FE16B0101C45187EC26F065
:103B08000101CD6FCD510001E26FE36B0101C1519D
:103B180087EC26F00101CE6FCE510001E46FE56B12
:103B28000101C05187EC26F00101CF6FCF51000190
:103B3800E66FE76BFA5187EC26F00101D06FD051A0
:103B48000001E86FE96BC5C1EAF0C6C1EBF0C7C177
:103B5800ECF0C8C1EDF0AEEC25F0C9C161F0CAC106
:103B680062F03BEC20F01200076A03BEC0EF1DF0C4
:103B7800BEEF1DF0C6EF1DF0026C031ED8B0032A7D
:103B8800010E076E05BECDEF1DF0CBEF1DF0D1EF96
:103B98001DF0046C051ED8B0052A04500510D8B4D1
:103BA800D8EF1DF0DAEF1DF0FEEF1DF0010E066EE6
:103BB800E2EF1DF0D89004360536062A05AEE7EF89
:103BC8001DF0E9EF1DF0DEEF1DF00450025C05501A
:103BD8000358D8A0F2EF1DF0F4EF1DF0F8EF1DF038
:103BE8000450025E0550035AD89005320432062E5E
:103BF800E9EF1DF00750D8B404EF1EF006EF1EF0F1
:103C08000AEF1EF0026C031ED8B0032A02C002F0AD
:103C180003C003F012000001666B000E656F60516F
:103C2800D96EDA6ADECFF6FFDDCFF7FF0800F55070
:103C38002A0AD8A422EF1EF024EF1EF04DEF1EF042
:103C48006051D96EDA6ADE2A000EDD226151D96E22
:103C5800DA6A020EDF26DF5CD96EDA6ADECF65F03B
:103C6800DECF66F060EF1EF00A0E6503F3CF62F058
:103C7800F4CF63F06603F350632764516225656FE0
:103C8800000E6321666F6051D96EDA6ADE2A000E73
:103C9800DD226051D96EDA6ADECFF6FFDDCFF7FF9D
:103CA8000800F550D00F646F090E64655EEF1EF0D2
:103CB80060EF1EF038EF1EF065C060F066C061F07E
:103CC8001200000E00016015686F000E6115696F23
:103CD800800E62156A6F7F0E63156B6F68516911EC
:103CE8006A116B11D8A47BEF1EF07DEF1EF085EFF3
:103CF8001EF0000E606F000E616F000E626F000E06
:103D0800636F000E6415686F000E6515696F800E8D
:103D180066156A6F7F0E67156B6F685169116A11B6
:103D28006B11D8A49AEF1EF09CEF1EF0A4EF1EF0C2
:103D3800000E646F000E656F000E666F000E676FF1
:103D4800645160190FE1655161190CE166516219FE
:103D580009E167516319D8B4B4EF1EF0B6EF1EF04D
:103D6800B9EF1EF0D890BAEF1EF0D8801200452A9D
:103D780057EC26F060C087F061C088F05BEC1FF05C
:103D880087C03AF088C03BF089C03CF08AC03DF05B
:103D9800BCC1C0F1BBC1C1F14FC0C2F14EC0C3F13B
:103DA8004DC0C4F13AC0C5F13BC0C6F13CC0C7F133
:103DB8003DC0C8F1000E0101C96F020ECA6F515013
:103DC80061EC1DF0010E4564ECEF1EF0EEEF1EF005
:103DD8000BEF1FF03B0E4464F4EF1EF0F6EF1EF0FD
:103DE800F7EF1EF0446A44C071F0BCC172F0BBC169
:103DF80073F03AC06AF03BC06BF03CC06CF03DC059
:103E08006DF031EC26F06CEC25F0442A456A12007E
:103E18001DEC27F021EC27F0A00EFBEC26F0000E9D
:103E2800FBEC26F0000EFBEC26F01DEC27F021EC55
:103E380027F0A10EFBEC26F000016351D96EDA6A77
:103E4800000E08EC26F0DF6E000E08EC26F064C0C9
:103E5800D9FF65C0DAFFDF6E000E08EC26F066C0F9
:103E6800D9FF67C0DAFFDF6E00016851D96EDA6AE0
:103E7800000E08EC26F0DF6E00016951D96EDA6A8F
:103E8800000E08EC26F0DF6E00016A51D96EDA6A7E
:103E9800000E08EC26F0DF6E00016B51D96EDA6A6D
:103EA800010E08EC26F0DF6E1DEC27F0120087C02B
:103EB80093F088C094F093C060F094C061F0000162
:103EC800626B636B000E27EC10F060C06EF061C08F
:103ED8006FF062C070F063C071F0E50E0001726FA0
:103EE800FF0E736F9F0E746F3B0E756F87EC07F0B4
:103EF8006EC08FF06FC090F070C091F071C092F0FA
:103F08008FC060F090C061F091C062F092C063F021
:103F18000A0E0001646FD70E656F230E666F3C0EA4
:103F2800676F9BEC09F060C08BF061C08CF062C0D9
:103F38008DF063C08EF08BC087F08CC088F08DC088
:103F480089F08EC08AF0120021EC27F0D00EFBEC2D
:103F580026F0000EFBEC26F01DEC27F021EC27F0F4
:103F6800D10EFBEC26F000016351D96EDA6A000E1F
:103F780008EC26F0DF6E000E08EC26F064C0D9FFCE
:103F880065C0DAFFDF6E000E08EC26F066C0D9FFC8
:103F980067C0DAFFDF6E00016851D96EDA6A000E79
:103FA80008EC26F0DF6E00016951D96EDA6A000E5E
:103FB80008EC26F0DF6E00016A51D96EDA6A000E4D
:103FC80008EC26F0DF6E00016B51D96EDA6A010E3B
:103FD80008EC26F0DF6E1DEC27F012000001FFA1AF
:103FE800F8EF1FF0FAEF1FF002EF20F06FC068F053
:103FF80070C069F06EC06AF08DEC25F0000172BFE8
:104008000AEF20F008EF20F00DEF20F0726B000EA1
:10401800716F756B000E746F1CEF20F0616B200ED2
:10402800606F6EC062F0ABEC1CF00001744B752B36
:104038007151745D7551800A736F7251800A73599A
:10404800D8A029EF20F02BEF20F012EF20F0FFB1DD
:1040580030EF20F032EF20F03AEF20F06FC068F038
:1040680070C069F06EC06AF08DEC25F01200000196
:10407800666B000E656F5DEF20F0000165516125EC
:10408800636F66516221646F63C0F6FF64C0F7FF17
:10409800F86A070EF76403D00800F55005D0F6CF8C
:1040A800E1FFF7CFE2FFE750CDEC26F00001654BCA
:1040B800662B65516125636F66516221646F63C029
:1040C800F6FF64C0F7FFF86A070EF76403D008002C
:1040D800F55005D0F6CFE1FFF7CFE2FFE750000932
:1040E800D8A479EF20F07BEF20F041EF20F0120008
:1040F80000017B6B9BEF20F000017B517725796FE6
:10410800000E78217A6F79C0F6FF7AC0F7FFF86A57
:10411800070EF76403D00800F55005D0F6CFE1FF8D
:10412800F7CFE2FFE75019EC19F000017B2B7B5128
:104138007725796F000E78217A6F79C0F6FF7AC0FB
:10414800F7FFF86A070EF76403D00800F55005D0AA
:10415800F6CFE1FFF7CFE2FFE7500009D8A4B7EFA9
:1041680020F0B9EF20F080EF20F0120092928992AF
:1041780092948994929689969298899895908C9021
:1041880095928C924E0E0001646FEB0EE82EFED7CE
:10419800642FFCD78C928C908988898602EC27F052
:1041A800080E0001646FC90EE82EFED7642FFCD7F5
:1041B80000D002EC27F0320EE82EFED702EC27F0F2
:1041C8008C928C908988899602EC27F0280E94ECC2
:1041D80019F0535094EC19F0545094EC19F067EC22
:1041E80026F01200320EF66E4E0EF76E000EF86EC6
:1041F80001EED3F010EE08F00900F5CFEEFFE55020
:10420800E150FAE15A0EF66E4E0EF76E000EF86E99
:1042180000EE52F010EE04F00900F5CFEEFFE55085
:10422800E150FAE102EE00F06E0EEE6AE806FDE1FA
:1042380001EE00F0C00EEE6AE806FDE10001FF6B3A
:1042480000EE2EF0240EEE6AE806FDE101900192E0
:10425800000EF86E0001D3EF11F0136A4DEF21F054
:1042680013500F24116E000E1020126E11C0F6FFAD
:1042780012C0F7FFF86A070EF76403D00800F5507C
:1042880005D0F6CFE1FFF7CFE2FFE7500FEC1AF0C9
:10429800132A13500F24116E000E1020126E11C035
:1042A800F6FF12C0F7FFF86A070EF76403D008009C
:1042B800F55005D0F6CFE1FFF7CFE2FFE750000950
:1042C800D8A469EF21F06BEF21F034EF21F0120050
:1042D8000001666B000E656F62516311D8B477EF09
:1042E80021F079EF21F0A1EF21F0010E646F81EF49
:1042F80021F0D89062376337642B63AF86EF21F0E3
:1043080088EF21F07DEF21F0D8906537663762514C
:10431800605D63516159D8A094EF21F096EF21F0C8
:104328009BEF21F06251605F6351615B6581D890BA
:1043380063336233642F88EF21F065C060F066C094
:1043480061F01200000E0001686F000E696F000E28
:104358006A6F000E6B6F60A1B4EF21F0B6EF21F029
:10436800BEEF21F0645168276551692366516A23BD
:1043780067516B23D8906437653766376737D890AD
:1043880063336233613360336051611162116311C9
:10439800D8A4D1EF21F0D3EF21F0AFEF21F068C01E
:1043A80060F069C061F06AC062F06BC063F012002F
:1043B800000E0A6E000E0B6E000E0C6E000E0D6ED7
:1043C80002A0E9EF21F0EBEF21F0F3EF21F0065026
:1043D8000A2607500B2208500C2209500D22D890AB
:1043E8000636073608360936D890053204320332C5
:1043F80002320250031004100510D8A406EF22F070
:1044080008EF22F0E4EF21F00AC002F00BC003F03D
:104418000CC004F00DC005F01200000162516311D8
:10442800D8B419EF22F01BEF22F03FEF22F0010E73
:10443800646F23EF22F0D89062376337642B63AF41
:1044480028EF22F02AEF22F01FEF22F06251605D80
:1044580063516159D8A033EF22F035EF22F039EFDC
:1044680022F06251605F6351615BD89063336233BD
:10447800642F2AEF22F060C060F061C061F0120082
:104488001DEC27F021EC27F0A00EFBEC26F0010E26
:10449800FBEC26F000016951030DF350FBEC26F00C
:1044A8001DEC27F021EC27F0A10EFBEC26F0000E06
:1044B80008EC26F063C0D9FF64C0DAFFDF6E000E97
:1044C80008EC26F065C0D9FF66C0DAFFDF6E010E82
:1044D80008EC26F067C0D9FF68C0DAFFDF6E1DEC74
:1044E80027F012000001646F00016405D8A47FEF73
:1044F80022F081EF22F083EF22F07F0E6327020E75
:104508006419D8A48AEF22F08CEF22F08EEF22F003
:10451800BF0E6327030E6419D8A495EF22F097EF16
:1045280022F099EF22F0930E6327040E6419D8A4A1
:10453800A0EF22F0A2EF22F0A4EF22F0D30E63271F
:10454800635194EC19F01200066E0604D8A4AFEF7C
:1045580022F0B1EF22F0B3EF22F07F0E0526020E13
:104568000618D8A4BAEF22F0BCEF22F0BEEF22F072
:10457800BF0E0526030E0618D8A4C5EF22F0C7EF14
:1045880022F0C9EF22F0930E0526040E0618D8A4CF
:10459800D0EF22F0D2EF22F0D4EF22F0D30E05268E
:1045A800055087EC1AF01200156E29EC27F0D00E92
:1045B8000EEC27F0000E0EEC27F015504BEC24F013
:1045C8000EEC27F00F50BAEC24F00EEC27F0105048
:1045D800FEEC23F00EEC27F01150B2EC26F00EECB6
:1045E80027F01250DFEC24F00EEC27F0135095EC76
:1045F80024F00EEC27F0145070EC24F00EEC27F0A9
:1046080025EC27F01200000163BF0DEF23F00FEF38
:1046180023F019EF23F060C060F061C061F062C060
:1046280062F063C063F032EF23F060C064F061C0F1
:1046380065F062C066F063C067F0641F651F661F9F
:10464800671F642B000E65236623672364C060F030
:1046580065C061F066C062F067C063F012000001D7
:104668006B6F00016A6B3C0E6B613DEF23F03FEF0F
:1046780023F05AEF23F06BC060F0616B636B0A0E96
:10468800626FEAEC1BF000016051686F6BC060F06C
:10469800616B636B0A0E626F09EC1DF000016051DB
:1046A800696F6839F00B6A6F69516A136A511200B1
:1046B8000001FE6FFCC0DAF0FDC0DBF0B70E0001B0
:1046C800DC6F7E0EDD6FFA5187EC26F00101C06FBA
:1046D800C0510001DE6FDF6BFE5187EC26F001014F
:1046E800C16FC1510001E06FE16BFBC0E2F0E36B09
:1046F800AEEC25F0FCC061F0FDC062F03BEC20F0B0
:10470800120062C069F063C06AF060C067F061C0FF
:1047180068F09FEF23F069C0D9FF6AC0DAFFDF5065
:10472800666F694B6A2B67C0D9FF68C0DAFF66C03D
:10473800DFFF674B682B00016407D8A06507642971
:1047480006E16529D8A4ABEF23F0ADEF23F08FEF96
:1047580023F012000001726F21EC27F0D00EFBEC61
:1047680026F0000EFBEC26F000017251FBEC26F05F
:1047780000016C51FBEC26F000016D51FBEC26F0BA
:1047880000016E51FBEC26F000016F51FBEC26F0A6
:1047980000017051FBEC26F000017151FBEC26F092
:1047A8001DEC27F0120021EC27F0D00EFBEC26F0D0
:1047B8000E0EFBEC26F0050EFBEC26F01DEC27F0A8
:1047C80021EC27F0D00EFBEC26F0070EFBEC26F0D0
:1047D800000EFBEC26F0800EFBEC26F0800EFBECC6
:1047E80026F0800EFBEC26F0800EFBEC26F01DEC8C
:1047F80027F012000D6E0C6A180E0D6006EF24F0FB
:1048080008EF24F023EF24F00DC002F0036A056AD4
:104818000A0E046E4BEC1CF002500A6E0DC002F03A
:10482800036A056A0A0E046EB8EC1DF002500B6E9E
:104838000A38F00B0C6E0B500C123F0E0C160C5075
:104848001200156E25EC27F029EC27F0A00E0EECCF
:1048580027F0000E0EEC27F0000E0EEC27F0155096
:104868000EEC27F00F500EEC27F010500EEC27F04E
:1048780011500EEC27F012500EEC27F013500EECEE
:1048880027F014500EEC27F025EC27F012000D6EDF
:104898000C6A3C0E0D6053EF24F055EF24F06EEFD8
:1048A80024F00DC002F0036A056A0A0E046E4BEC90
:1048B8001CF002500A6E0DC002F0036A056A0A0E67
:1048C800046EB8EC1DF002500B6E0A38F00B0C6E3B
:1048D8000B500C120C5012000D6E0C6A640E0D6019
:1048E80078EF24F07AEF24F093EF24F00DC002F073
:1048F800036A056A0A0E046E4BEC1CF002500A6E3D
:104908000DC002F0036A056A0A0E046EB8EC1DF0C9
:1049180002500B6E0A38F00B0C6E0B500C120C5038
:1049280012000D6E0C6A0D0E0D609DEF24F09FEFC6
:1049380024F0B8EF24F00DC002F0036A056A0A0EED
:10494800046E4BEC1CF002500A6E0DC002F0036AB4
:10495800056A0A0E046EB8EC1DF002500B6E0A3898
:10496800F00B0C6E0B500C120C5012000D6E0C6AF2
:104978003C0E0D60C2EF24F0C4EF24F0DDEF24F00C
:104988000DC002F0036A056A0A0E046E4BEC1CF0B7
:1049980002500A6E0DC002F0036A056A0A0E046E20
:1049A800B8EC1DF002500B6E0A38F00B0C6E0B5071
:1049B8000C120C5012000D6E0C6A200E0D60E7EF01
:1049C80024F0E9EF24F002EF25F00DC002F0036AAD
:1049D800056A0A0E046E4BEC1CF002500A6E0DC0FC
:1049E80002F0036A056A0A0E046EB8EC1DF0025064
:1049F8000B6E0A38F00B0C6E0B500C120C50120098
:104A0800000E00018B1B000E8C1B000E8D1B800EF0
:104A18008E1B87C060F088C061F089C062F08AC0D0
:104A280063F08BC064F08CC065F08DC066F08EC0FA
:104A380067F02BEC05F060C087F061C088F062C0B9
:104A480089F063C08AF01200D5C0D8F0D6C0D9F07A
:104A580037EF25F0D4C0C7F0D80E0001C86FD7C013
:104A6800C9F063EC0BF0D8C0F6FFD9C0F7FF080017
:104A7800F5500009D8A443EF25F045EF25F02EEFB7
:104A880025F00001D56B000ED46F1200000179519A
:104A9800080DF350400F94EC19F000017A6B7A512D
:104AA8007725D96E000E7821DA6EDF5019EC19F0EF
:104AB80000017A2B070E7A6564EF25F066EF25F082
:104AC80053EF25F0010E636F010E76EC22F0120011
:104AD8000001746F1DEC27F021EC27F0A00EFBEC11
:104AE80026F0010EFBEC26F000017151030DF35086
:104AF800FBEC26F000017251FBEC26F0000173512B
:104B0800FBEC26F000017451FBEC26F01DEC27F0BD
:104B1800120000016D6B000E6C6F9DEF25F06BC0ED
:104B280060F0616B6AC062F0ABEC1CF000016C4B8A
:104B38006D2B6C516825D96E6D516921DA6EDF5085
:104B48006B6F6B51D8A4ABEF25F0ADEF25F093EF69
:104B580025F01200DE0E0001EE6FDAC0EFF0DBC0C8
:104B6800F0F0F26B000EF16FF96B000EF86FEF0EBC
:104B7800D46FDCC0D5F0DDC0D6F0EE0ED76F28ECD0
:104B880025F00001F151DA25D96EF251DB21DA6EF8
:104B9800DF6A120060C064F061C065F062C0F6FFB1
:104BA80063C0F7FF0001624B632B64C0D9FF65C087
:104BB800DAFF644B652B0800F5CFDFFFDF50D8A480
:104BC800E8EF25F0EAEF25F0D2EF25F0120000011A
:104BD8006051611162116311D8B4F5EF25F0F7EF58
:104BE80025F0FFEF25F0000E601B000E611B000E84
:104BF800621B800E631B60C060F061C061F062C020
:104C080062F063C063F012000001616F1DEC26F0D2
:104C1800C5861DEC26F0C9CF62F01DEC26F0000118
:104C280061B102D0C59A01D0C58AC5880001625118
:104C38001200C5CF60F01F0E00016017D8A427EF3F
:104C480026F029EF26F01DEF26F0C7B42EEF26F048
:104C580030EF26F01DEF26F012006AC060F06BC03E
:104C680061F06CC062F06DC063F012EC17F060C0C8
:104C78006EF061C06FF06EC070F0000170511200EC
:104C8800C5CF02F01F0E0216D8A44DEF26F04FEF45
:104C980026F044EF26F0C7B454EF26F056EF26F07E
:104CA80044EF26F01200C282C2B25DEF26F05FEF39
:104CB80026F058EF26F0C4500001626FC350606FB1
:104CC80062C061F01200010E94EC19F0030E0001AD
:104CD800636FE70EE82EFED7632FFCD700D0545041
:104CE80094EC19F0120092800E0EC16EC08EC05066
:104CF800C70B1009C06EC050F80B0609C06EC30E72
:104D0800C216C28012000001626F000162390F0BE7
:104D18000F0B0A0DF3CF60F062510F0B616F6051FA
:104D28006125120021EC27F0D00EFBEC26F00F0EC7
:104D3800FBEC26F0000EFBEC26F01DEC27F0120031
:104D4800010E87EC1AF0030E056EE80EE82EFED76A
:104D5800052EFCD7545087EC1AF01200026E080E8C
:104D68000260B9EF26F0BBEF26F0BEEF26F0025046
:104D7800BFEF26F0000E1200046E04380F0B0F0B65
:104D88000A0DF3CF02F004500F0B036E02500324F8
:104D980012000001606F9EA8D4EF26F0D6EF26F02F
:104DA800CFEF26F060C0ADFF1200948C948EAC84D7
:104DB800B886B06A670EAF6EAC98AB8EAC8A12003C
:104DC80093809382800EC76E280EC66E090EC86E39
:104DD80012000001776F0001775119EC19F01200E9
:104DE800020E936EF28EF088F092F18812000001A4
:104DF800616F1DEC26F061C0C9FF12008984140E92
:104E0800E82EFED7899412008984140EE82EFED766
:104E1800899412000E6E44EC26F00EC0C9FF1200F1
:104E2800500E9312F286F290120007050700000058
:104E380000001DEC26F0C58412001DEC26F0C5808C
:104E4800120044EC26F0C584120044EC26F0C5801C
:084E58001200010C060112001A
:107E800000646174653A2575202F202575202F2008
:107E90002575207C5B74696D653A202575203A2034
:107EA0002575203A2025755D7C74656D703A252E08
:107EB0003266B0430D0A007C7C2020202020202048
:107EC000203E3E3E74696D653A202575203A202596
:107ED000755D7C74656D703A257520B04320202057
:107EE0002020202020202020207C0D0A007C202023
:107EF0002020202020202020202020202020202082
:107F00002054656D705F5F4C6173745F3168202031
:107F100020202020202020202020202020207C0D18
:107F20000A007C2A2A2A2A2A2A2A2A2A2A2A2A2AA9
:107F30002A2A2A2A2A2A2A2A2A2A2A2A2A2A2A2AA1
:107F40002A2A2A2A2A2A2A2A2A2A2A2A2A2A2A2A91
:107F50002A2A2A7C0D0A007C2A2A2A2A2A2A2A2A44
:107F60002A2A2A2A2A2A2A2A2A2A2A2A7C7C7C7C29
:107F70002A2A2A2A2A2A2A2A2A2A2A2A2A2A2A2A61
:107F80002A2A2A2A2A2A2A2A7C0D0A007C5F5F5F75
:107F90005F5F5F5F5F5F5F5F5F5F5F5F5F5F5F5FF1
:107FA0005F5F5F5F5F5F5F5F5F5F5F5F5F5F5F5FE1
:107FB0005F5F5F5F5F5F5F5F5F5F5F5F5F7C0D0A5B
:107FC0000054696D653A253032753A253032753A7C
:107FD0002530327500253032752F253032752F252A
:107FE0003032757C006E6F742073746F726564211B
:107FF000210D0A00696E66006E616E00202000008F
:020000040030CA
:0E00000000081F00FF8184FF0FC00FE00F40BB
:00000001FF
